:020000040800F2
:1000000000000220595600084154000849540008D5
:1000100051540008595400086154000800000000C1
:10002000000000000000000000000000695400080B
:10003000775400080000000085540008935400081D
:10004000A9560008A9560008A9560008A956000894
:10005000A9560008A9560008A9560008A956000884
:10006000A9560008A9560008A9560008A956000874
:10007000A9560008A9560008A9560008A956000864
:10008000A9560008A9560008A9560008000000005B
:10009000000000000000000000000000A956000859
:1000A000A9560008A9560008A9560008A956000834
:1000B000A9560008A9560008A1540008A95600082E
:1000C000A9560008A9560008A9560008A956000814
:1000D000A9560008A9560008A9560008000000000B
:1000E000A9560008A9560008A956000800000000FB
:1000F000000000000000000000000000A9560008F9
:1001000000000000A9560008A9560008A9560008DA
:1001100000000000000000000000000000000000DF
:10012000A9560008A9560008A9560008A9560008B3
:10013000A9560008000000000000000000000000B8
:10014000000000000000000000000000A9560008A8
:10015000A9560008A9560008A9560008A956000883
:10016000A9560008A9560008000000000000000081
:10017000000000000000000000000000000000007F
:1001800000000000A9560008000000000000000068
:08019000A9560008A956000859
:1001C0002DE9F04755EC104B84B0002D0D9E89466B
:1001D00092463DDB0027652E1F7035D03DDC452E55
:1001E00032D0462E5AD1032103AB019302AB0093C8
:1001F00045EC104B0C9B4A4601F044F9074626F0AB
:100200002003462B07EB090805D13B78302B39D06A
:100210000C9B1B689844204629460022002304F0CA
:1002200083FD002838D1039B984506D930215A1CFC
:1002300003921970039B4345F9D30E9ADB1B384692
:10024000136004B0BDE8F08709F101090221CBE792
:1002500005F100422D271546BDE7662EC3D003AB3E
:10026000019302AB009345EC104B0C9B4A460221D4
:1002700001F008F9672E0746C1D11AF0010F1ED10F
:10028000039BDAE7002200232046294604F04CFDB8
:10029000C0B10C9B1B6898444346CEE703AB019367
:1002A00002AB009345EC104B0C9B4A46022101F037
:1002B000E9F8472E0746A2D11AF0010FE0D007EB6C
:1002C0000908A8E70C9AC9F101031360A2E700BF6F
:1002D00070B50029BABF49422D232B23092982B0CA
:1002E000027043702BDD0DF10704194DA446A5FBE8
:1002F0000123DB0803EB8302A1EB42028E4630327E
:10030000BEF1630F66460CF8012C19460CF1FF3C58
:10031000EDDCB31E3031A3420CF8011C00F10205E4
:100320000AD2421C13F8011B02F8011FA342F9D1A3
:100330000DF109039B1B1D44281A02B070BD302328
:100340001944051D8370C170281A02B070BD00BF2A
:10035000CDCCCCCC2DE9F04F8DB00C46DDF85880DB
:1003600016461F46054600F085FE036806931846AC
:1003700000F086FF00230A93D8F800300790073377
:1003800023F0070303F10802D4F800A094F818B092
:10039000C8F8002093ED007B8DED047B9DED047B80
:1003A00053EC172B904623F0004984ED127B9F4BB2
:1003B0004FF0FF324046494604F0E8FC40B99B4B01
:1003C000404649464FF0FF3204F0C2FC002871D08D
:1003D000DDE9040102460B4604F0D8FC002840F099
:1003E000298261684B1C4AF480620BF0DF0832D02E
:1003F000B8F1470F00F022810023226003930AAB7B
:10040000029309AB00939DED040BCDF804B00DF100
:1004100023032846FFF7D4FE8146BBF1650F0999F7
:1004200037D9BBF1660F00F028810A9B8B4240F35D
:100430002F810029D4BFC1F102020122134423619C
:10044000A1654FF0000A9DF82330002B4AD02D23E0
:1004500084F8433046E0062100232260CDF804B042
:10046000616003930AAB029309AB00939DED040B0B
:100470000DF123032846FFF7A3FEB8F1470F81468D
:10048000CBD10999C81C80F2F180ABF1020B5FFA65
:100490008BFB01395A4604F150000991FFF718FF10
:1004A0000A9A1318012A8246236140F337810133E7
:1004B0002361C8E7DDE904010022002304F03EFCCB
:1004C00010B12D2384F843302AF00402584B2260E7
:1004D000584ABBF1470F8CBF9146994603232361CD
:1004E0004FF0000A009733460BAA2146284600F039
:1004F000BFF9013023D0236858052BD423694A461D
:1005000031462846B847013019D02268E0680B9B75
:10051000920719D5984217DD4FF0000804F1190928
:1005200004E0E0680B9BC21A42450DDD01234A46F8
:1005300031462846B847013008F10108F1D14FF0A3
:10054000FF300DB0BDE8F08F9842B8BF18460DB02F
:10055000BDE8F08FBBF1650F33D9D4E91201002259
:10056000002304F0E1FB002800F09A80324A0123C6
:1005700031462846B8470130E1D0DDE9093A534514
:1005800002DB2268D107C1D5DDE9062331462846C2
:10059000B8470130D3D0BAF1010FB6DD0AF1FF3A06
:1005A0004FF0000904F11A0801E0D145ADD0012354
:1005B000424631462846B847013009F10109F4D1D5
:1005C000BDE7DDF82880B8F1010F40F398800123E2
:1005D0004A4631462846B8470130B0D0DDE9062307
:1005E00031462846B8470130A9D0D4E9120100228B
:1005F000002308F1FF3B04F097FB002800F09380F4
:10060000B8F1010F40F386804FF0000904F11A0899
:1006100001E0D9457ED00123424631462846B847FD
:10062000013009F10109F4D189E700BFFFFFEF7F35
:10063000C0360508C4360508D036050809B90121B9
:1006400061600023226003930AAB029309AB00931D
:100650009DED040BCDF804B00DF123032846FFF700
:10066000AFFD09998146C81CFFF60FAF6368994238
:100670003FF70BAF4FF0670BD7E60029636856DDF5
:100680002161002B00F0858001330B442361D7E604
:1006900023682161DB077FF5D3AE4B1C2361CFE6D6
:1006A000099B002B4ADD0A9BD4F858B004935B45A4
:1006B000A8BF5B46002B984608DD4A4631462846CF
:1006C000B84701303FF43BAFD4F858B028EAE8729D
:1006D00093456BDD4FF0000A04F11A08934604E0DD
:1006E000A36DA3EB0B0252455FDD01234246314669
:1006F0002846B84701300AF1010AF1D11FE7D907AE
:100700003FF565AF4A46012331462846B8470130D8
:100710003FF415AF534604F15002F1E62268D207C8
:100720007FF591AEC3E65B4609F10102ECE7002BD1
:1007300034D12268D20731D4012380E6494A01230B
:1007400031462846B84701303FF4F9AEDDE9093AB1
:100750005AEA030324D0DDE9062331462846B84788
:1007600001303FF4ECAE099B002B78DA4FF0000B20
:1007700004F11A0803E0099B5B425B456FDD01232E
:10078000424631462846B84701300BF1010BF2D101
:10079000D5E62268D0077FF553AE75E702334EE603
:1007A0002268D3077FF5B2AED5E79B46099B049A32
:1007B0009A4202DC2268D00708D5DDE906233146DB
:1007C0002846B84701303FF4BAAE099B049AA2EB21
:1007D0000B0AD31A9A45A8BF9A46BAF1000F0BDD4F
:1007E00009EB0B02534631462846B84701303FF427
:1007F000A6AE099B049AD31A2AEAEA7A53457FF7F0
:1008000084AEDDF810B04FF0000904F11A0807E0DB
:10081000099BABEB0303A3EB0A034B457FF775AED4
:100820000123424631462846B847013009F1010903
:10083000EED184E6059B0C4A002BBCBF2D2384F827
:1008400043302AF004032360084BBBF1470F8CBFF1
:1008500091469946032323614FF0000A42E653462E
:100860004A464DE6D0360508CC360508C836050898
:100870002DE9F84F92461F460A698B68DDF82890EB
:100880009A42B8BF1A46CAF8002091F843300C4685
:10089000064613B10132CAF80020226891065FD5DE
:1008A000DAF800300233CAF80030226812F0060F7E
:1008B00011461DD1E1689942D8BF114618DD4FF0AD
:1008C000000804F1190B05E0E568DAF80030ED1ACC
:1008D00045450CDD01235A4639463046C8470130AC
:1008E00008F10108F0D14FF0FF30BDE8F88F216822
:1008F00094F84330003B18BF01238A060AD5E1185B
:100900005A1C302081F84300224494F8451082F8A4
:100910004310023304F1430239463046C8470130E0
:10092000E1D02368DAF80050216903F00603042BB4
:10093000D4E902201BD08A4220DD4FF00008521A71
:1009400090441A34002501E0454517DA0123224678
:1009500039463046C847013005F10105F4D1C2E7F8
:1009600012F0060F0DD0003B18BF0123D2E7401B49
:100970008A4220EAE078E2DC0028E2DC0020BDE8E0
:10098000F88FE168DAF800309942D8BF114696DC5A
:10099000AEE700BF2DE9F047174684B00A7E0C9DF4
:1009A0000C460646984601F1430C002A35D0A2F1C8
:1009B0005803D9B2202969D8202B67D8DFE813F073
:1009C000E600660066006600660066006600660077
:1009D000660066006600AC00700066006600660097
:1009E00066007000660066006600660021008300F5
:1009F000C60066006600B6006600830066006600FA
:100A0000EC002B6822686169181D286010061B68BD
:100A100002D4520600F1E08019600023E146236110
:100A2000CDF800803B4603AA21463046FFF720FF61
:100A3000013020D023694A4639463046C04701304C
:100A400019D02368E068DDF80C909B0718D548455D
:100A500016DD002504F1190A04E0E068A0EB0903A3
:100A6000AB420DDD0123524639463046C0470130C6
:100A700005F10105F1D14FF0FF3004B0BDE8F0877A
:100A80004845B8BF484604B0BDE8F08784F8422026
:100A9000012004F142090023206184F84330BFE7BC
:100AA0002A682368111D1806296002D4590600F12E
:100AB00095801068014600286268C0F2938054480F
:100AC0004FF00A0E15E020682B6810F0800F53F8E5
:100AD000041B02D1400648BF89B26F2A4C482B60E4
:100AE00014BF4FF00A0E4FF0080E0023626884F81E
:100AF0004330002AA26051DB236823F00403236003
:100B000000294BD1002A7BD1E146BEF1080F56D017
:100B1000ACEB0903236183E72B681A6804332B606D
:100B200004F1420984F842200120B4E72B6862688E
:100B3000191D2960D3F800900021484600F038FBC9
:100B4000002863D0A0EB09006060A4E7236843F0AD
:100B50002003236078222F4884F845202A6813F068
:100B6000800F52F8041B03D113F0400F18BF89B255
:100B70002A60DA0744BF43F02003236019B92368D1
:100B800023F0200323604FF0100EAEE7582384F8C3
:100B900045301F482368E1E72368DBE77546E146F7
:100BA000B1FBF5F305FB131A0A46AA4210F80A1026
:100BB00009F8011D1946F3D2BEF1080FA8D1236828
:100BC000DD07A5D5626823699A42A1DC302309F8C4
:100BD000013C09F1FF399BE719801EE7B2F90010CB
:100BE000084668E72D20002AA26084F8430002DB53
:100BF00023F0040323600A2505484942AE46CEE7A8
:100C0000037884F8423004F142097EE7606842E7E5
:100C1000D4360508E8360508024A0349034800F0BF
:100C200069B900BF00000020A531000810000020B5
:100C30000C4B4168994210B5044601D002F0B2FA5B
:100C4000A168094B994202D0204602F0ABFAE16854
:100C5000064B994204D02046BDE8104002F0A2BAEB
:100C600010BD00BFC8020020300300209803002000
:100C700008B54B6EDA0702D48B899B0501D500209D
:100C800008BD886D00F084FA002008BD08B54B6EE1
:100C9000DA0702D48B899B0501D5002008BD886D39
:100CA00000F07EFA002008BD2DE9F843314C3249AE
:100CB000DFF8D890DFF8D880304FC4F8381100251D
:100CC00004232946082204F15C002D4EE360C4E9A8
:100CD0000055C4E90455A5606566A56100F076F984
:100CE00004F15800C4E90849C4E90A87266300F002
:100CF00047FA2946234B6367082204F1C400C4E97C
:100D00001A55C4E91E552567C4F8CC50C4F8805064
:100D100000F05CF904F1680304F1C000C4F8883005
:100D2000C4E92398C4E9257600F02AFA164BC4F8E2
:100D3000DC30294604F596700822C4E93455C4E92C
:100D40003855C4F8D850C4F83451C4F8E85000F00D
:100D50003DF904F1D003C4E93E87C4F8F49004F5EA
:100D60009470C4F80061C4F8F030BDE8F84300F0B6
:100D700007BA00BFC8020020190C0008A10F000824
:100D8000C50F00080900010012000200390F000819
:100D9000610F0008F8B506462A4800F0F9F92A4B19
:100DA000D3F83831002B43D0284FD7E90134013B29
:100DB00004D524E05A1C04F1680420D0B4F90C5086
:100DC000013B002DF6D1224BE36004F1580065662B
:100DD00000F0D6F91B4800F0E3F9C4E90155C4E975
:100DE000045508222560A561294604F15C0000F045
:100DF000EDF8C4E90D55C4E912552046F8BD3D682B
:100E00000DB12F46D1E74FF4D671304601F024FBE7
:100E1000044680B10423C0E900530C302946A06089
:100E20004FF4D072254600F0D1F83C602F46BCE765
:100E3000FFF73AFFB8E703483C6000F0B1F90C2334
:100E40003360DAE724040020C802002000000020FC
:100E50000100FFFF10B504460B4800F099F9236A22
:100E60002BB90A4B0A4AD3F83831226223B1BDE8C4
:100E70001040054800F094B9FFF716FFBDE8104098
:100E8000014800F08DB900BF24040020C8020020F2
:100E9000310C0008014800F07BB900BF2404002099
:100EA000014800F07DB900BF2404002008B50548C2
:100EB00000F06EF9BDE80840034A0449002000F044
:100EC00019B800BF2404002000000020710C0008A5
:100ED00008B5054A0549002000F00CF8BDE80840B7
:100EE000034800F05DB900BF000000208D0C000831
:100EF000240400202DE9F8430746884616464FF0A3
:100F00000009D6E90154013D10D4A389012B08D969
:100F1000B4F90E3001332146384602D0C04749EAC1
:100F20000009013D6B1C04F16804EED13668002E07
:100F3000E7D14846BDE8F88310B50C46B1F90E106C
:100F400000F0C8F8002803DB636D0344636510BD3F
:100F5000A38923F48053A38110BD00BF00207047F4
:100F60002DE9F0410C46B1F90C101F46CB050546A2
:100F700016460BD421F48051A1813B46B4F90E10E2
:100F800032462846BDE8F04100F0BAB8B4F90E1078
:100F90000223002200F088F8B4F90C10EAE700BF41
:100FA00010B50C46B1F90E1000F07EF8B4F90C3013
:100FB000421C0EBF23F4805343F480536065A38129
:100FC00010BD00BFB1F90E1000F05CB8830730B55A
:100FD00047D0541E002A3ED0CAB2034601E0013C6D
:100FE00039D303F8012B9D07F9D1032C2CD9CDB2AD
:100FF00005EB05250F2C05EB054535D9A4F11002AD
:1010000022F00F0C03F1100EE6444FEA121C1A46B0
:10101000C2E90055C2E9025510327245F8D10CF10F
:10102000010214F00C0F03EB021204F00F0C13D0AA
:10103000ACF1040323F003030433134442F8045BCC
:101040009342FBD10CF003042CB1C9B21C4403F849
:10105000011BA342FBD130BD64461346002CF4D1E2
:10106000F9E703461446C0E71A46A446E0E700BF86
:10107000F0307047004870474C010020004870472E
:101080004C01002038B5074D0022044608462A606E
:1010900004F0AEFA431C00D038BD2B68002BFBD007
:1010A000236038BD0404002038B50C46084D844642
:1010B000114620461A4600232B60644604F0BFFA0E
:1010C000431C00D038BD2B68002BFBD0236038BDFB
:1010D0000404002038B50C46084D844611462046CD
:1010E0001A4600232B60644604F065FA431C00D0C6
:1010F00038BD2B68002BFBD0236038BD04040020D2
:1011000038B50C46084D8446114620461A46002341
:101110002B60644603F0F6FE431C00D038BD2B68FC
:10112000002BFBD0236038BD0404002070B50F4BAA
:101130000F4DAB42A3EB050607D0B610002455F8BF
:10114000043B01349847A642F9D851F095FE094D69
:10115000094B5E1BAB424FEAA60606D0002455F8A9
:10116000043B01349847A642F9D870BD0000000046
:10117000000000000000000000000000704700BFF9
:10118000704700BF704700BF704700BF704700BF87
:10119000704700BF0120704701207047704700BFB3
:1011A000704700BF000000000000000000000000C9
:1011B00001F0FF01102A2BDB10F0070F08D010F808
:1011C000013B013A8B422DD010F0070F42B3F6D10C
:1011D000F0B441EA012141EA014122F007047FF025
:1011E00000070023F0E80256083C85EA010586EA7C
:1011F000010685FA47F5A3FA87F586FA47F6A5FAB8
:1012000087F68EB9EED1F0BC01F0FF0102F00702C3
:1012100032B110F8013B013A83EA010313B1F8D16E
:101220000020704701387047002D06BF354603384F
:10123000073815F0010F07D1013015F4807F02BF88
:10124000013015F4C03F0130F0BC0138704700BFD9
:10125000000000000000000000000000000000008E
:10126000000000000000000000000000000000007E
:10127000000000000000000000000000000000006E
:1012800030B490F800F020F007016FF0000C10F07F
:10129000070491F820F040F048804FF000046FF010
:1012A0000700D1E9002391F840F000F1080082FA2C
:1012B0004CF2A4FA8CF283FA4CF3A2FA8CF34BBBF7
:1012C000D1E9022382FA4CF200F10800A4FA8CF270
:1012D00083FA4CF3A2FA8CF3E3B9D1E9042382FA3E
:1012E0004CF200F10800A4FA8CF283FA4CF3A2FA53
:1012F0008CF37BB9D1E9062301F1200182FA4CF28B
:1013000000F10800A4FA8CF283FA4CF3A2FA8CF3F1
:10131000002BC6D0002A04BF04301A4612BAB2FA13
:1013200082F200EBD20030BC7047D1E9002304F018
:101330000305C4F100004FEAC50514F0040F91F84D
:1013400040F00CFA05F562EA05021CBF63EA0503EA
:1013500062464FF00004AAE72DE9F04F03690C69DB
:10136000A34283B0C0F28A80013C01F1140500F170
:10137000140855F8243058F8242001339A428E4638
:1013800081464FEA840105EB840708EB840AB2FB2F
:10139000F3F63AD3CDE900150022AC464046134699
:1013A0005CF8041B05681FFA81FB06FB0B22090C85
:1013B0004FEA124B06FB01BB92B2A9B2891A19443B
:1013C0001FFA8BF3C3EB214303EB154389B241EAC8
:1013D0000341674540F8041B4FEA1B424FEA234391
:1013E000DED2DDE9001558F8013073B9AAF1040A1C
:1013F000D04504D307E0D04504F1FF3403D25AF8B6
:101400000439002BF7D0C9F810407146484601F066
:10141000BDFB00282EDB4146002255F8040BD1F815
:1014200000C01FFA80FE1FFA8CF3A3EB0E031344D7
:10143000020CC2EB234202EB1C429BB243EA024382
:10144000AF4241F8043B4FEA2242E6D258F824204A
:1014500008EB84036AB9043B434504D807E0984588
:1014600004F1FF3403D253F80429002AF7D0C9F855
:1014700010400136304603B0BDE8F08F002003B0C5
:10148000BDE8F08F2DE9F04FC5699DB08DED060BDD
:10149000269C049057EC106B02910B920993002D3F
:1014A00000F0B183296851B16A684A600123934012
:1014B0008B6001F09DF8049BDB6900221A60B7F194
:1014C0000009B4BF012300232360774BBCBF29F080
:1014D0000049CDF81C9033EA090300F0AC809DED83
:1014E000067B002251EC170B00238DED007B03F0EF
:1014F0001BFC804668B1099A01231360279B13B136
:10150000279A6A4B13606A4B059305981DB0BDE896
:10151000F08F9DED000B04981AAA1BA901F0A4FC02
:101520005FEA1955824640F09C80DDE91A85454402
:1015300005F23243202B40F39B83C3F1400309FAA9
:1015400003F905F2124326FA03F349EA030003F014
:1015500009F90123013DA1F1F8711293554B0022C5
:1015600002F0C2FF4AA3D3E9002303F075F94AA3AE
:10157000D3E9002302F0BAFF064628460F4603F0DF
:1015800001F947A3D3E9002303F066F902460B46AD
:101590003046394602F0AAFF06460F4603F00CFC1F
:1015A00000220446089000233046394603F0C6FB6B
:1015B000002840F03683089CA8EB0508162C08F19B
:1015C000FF3B00F214833C4B03EBC403D3E900233D
:1015D000DDE9000103F0B2FB002873D0631E08931D
:1015E000BBF1000F4FF000031193C0F206830023FC
:1015F0000C93089B002B6BDA089B0C9A0D93D21A64
:101600000C925A4200230893029B1092092B67D830
:10161000052BC4BF043B0293029BA3F10203CCBF82
:1016200000250125032B00F24986DFE813F07C0436
:10163000790470045204099AC9F3130942F20F7332
:1016400059EA060913601CD1279B002B00F02D8658
:101650001A4B05930833279A059813601DB0BDE80F
:10166000F08FDDE90012C2F31303084643F07F5107
:10167000CDF84880A5F2FF35DDF8688041F44011CF
:101680006CE7279B002B40F000840D4B05933CE753
:1016900061436F63A787D23FB3C8608B288AC63F78
:1016A000FB799F501344D33F0000F07FD1360508EB
:1016B000D03605080000F83FA02E0508FC360508C6
:1016C00008370508B8F1000F40F3AF8411900C9073
:1016D000089B0D939B4400231093029B092B97D9E1
:1016E00000234FF0FF32CDE90A23012502930E9526
:1016F000049BDB69002159600A9B1393049800F056
:1017000037FF0590002800F0E285049B059ADB690D
:101710001A600A9B0E2B00F20D81002D00F00A8149
:101720000D99002940F35184AE4B01F00F0203EBF9
:10173000C203C805D3E900894FEA211540F1158499
:10174000A94BDDE90001D3E9082303F0AFF9CDE9A6
:10175000140105F00F0503277DB1A34EE90708D555
:1017600040464946D6E9002303F076F80137804623
:1017700089466D1006F10806F0D142464B46DDE978
:10178000140103F093F980468946119B43B1974BAE
:1017900000224046494603F0D1FA002840F0178560
:1017A000384602F0EFFF42464B4603F055F8904BA7
:1017B000002202F09BFEA1F15073CDE914011593B4
:1017C0000A9B002B00F09D800D9B19930A9B189398
:1017D0004946404603F0F0FA189A824B03EBC203E5
:1017E00013ED027B05468DED167B02F0CBFF0B4619
:1017F00002464946404602F077FE059F0E9B303573
:101800007E1CECB2804689463546002B00F072847F
:10181000DDE916237749002003F048F9DDE91423B8
:1018200002F062FE3C7042464B4604460D4603F011
:10183000A3FA002840F0BF84CDF858B0CDF850A0EE
:10184000AB460027189DA2462AE00137AF4280F23E
:101850000685694B50465946002202F0FDFF664B53
:10186000002282468B464046494602F0F5FF8946F3
:10187000804603F0A1FA044602F084FF02460B46BC
:101880004046494602F030FE303406F8014B5246DD
:101890005B468046894603F051FA002840F0DC841C
:1018A00042464B465149002002F01EFE52465B461E
:1018B00003F044FA0028C8D0199BDDF850A0059A1F
:1018C000374603F1010802E0974200F0A6843E4645
:1018D00017F8013D392BF7D00133DBB23B70454699
:1018E00074E1384602F04EFF42464B4602F0B4FF28
:1018F0003F4B002202F0FAFDA1F15073CDE9140133
:1019000015933E4B00224046494602F0EDFDDDE9CD
:10191000144522462B4606460F4603F02DFA0028B2
:1019200040F08A8430463946224605F1004303F0F0
:1019300005FA28BB1B9B002BC0F292800D9A0E2A41
:1019400000F38E80274B0D9A03EBC20393ED007BCF
:101950000B9B002B8DED027B19DA0A9B002B16DC0A
:101960000ED1264B0022DDE9020102F075FF02468E
:101970000B46DDE9000103F0EBF9002800F05C8480
:101980000023059E00931F460B9BDD4344E2059B0D
:101990005D1CDDE90278DDE900013A46434603F0CB
:1019A00085F803F009FA064602F0ECFE3A46434693
:1019B00002F052FF02460B46DDE9000102F094FD01
:1019C000059A06F1300313700A9B012B2F4600F095
:1019D00037830125CDF800A0A846DDE902AB994682
:1019E0002CE000BFA02E0508902F05080000F03F56
:1019F00000001C400000E03F0000244000001440B4
:101A000052465B462046294603F050F803F0D4F9CD
:101A1000064602F0B7FE52465B4602F01DFF08F193
:101A200001080B4602462946204602F05DFD06F1FC
:101A30003003C84507F8013B00F000838F4B0022BC
:101A400002F00AFF0022002304460D4603F06CF961
:101A50000028D5D00D9DDDF800A001353E46B5E04B
:101A60000E9A002A40F0F1800023109E0C9D0E93E8
:101A70001F4665B1BBF1000F09DD5D450C9A2B4691
:101A8000A8BF5B46D21A0C92ED1AABEB030B109B6E
:101A900053B10E9B13B1002E40F00B835146109AA8
:101AA000049800F08FFF82460498012100F0BEFEEA
:101AB000089B0090002B40F0D381029B012B40F348
:101AC000E9810120584410F01F0000F0B780C0F1F8
:101AD0002003042B40F3F8810C9BC0F11C0003444D
:101AE0000C93054483440C9B002B05DD5146049860
:101AF0001A4600F0D7FF8246BBF1000F05DD0099C2
:101B000004985A4600F0CEFF0090119B002B40F045
:101B10008C810A9B002B40F364810E9B002B40F0CC
:101B2000BC800D9D0135DDF81480009CDDF828B0E7
:101B3000DDF81090012607E0514600230A224846AE
:101B400000F07AFD0136824621465046FFF704FC3C
:101B5000B34500F1300008F8010BEDDC0A9B002BC7
:101B6000C8BF1E46059BD8BF0126814603EB060B66
:101B7000002451460122049800F094FF0099824607
:101B800001F004F8002840F30382059A02E093452F
:101B900000F016825E460BF1FF3B16F8013C392B34
:101BA000F5D001338BF80030DDF810800099404605
:101BB00000F01EFD57B12CB1BC4203D02146404677
:101BC00000F016FD0498394600F012FD04985146C5
:101BD00000F00EFD00233370099B1D60279B002B36
:101BE0003FF493AC05981E601DB0BDE8F08F012353
:101BF000BBF1000F1193BFF6FAACC8F101030C93CF
:101C00004FF0000BF5E4102000F0F2FB049B0246BD
:101C1000D861002800F04D83C0E90055C0E90255A5
:101C20004DE4204602F0AEFD32463B4603F07CF820
:101C300000287FF4C0AC631E0893BCE41C230C9AFC
:101C40001A440C921D449B444DE7029A012A40F32A
:101C5000AA810A9B109A5E1EB242C0F26781002BD5
:101C6000A2EB060680F2EC820C9B0A9A9D1A6AE1AE
:101C7000C3F1200306FA03F069E400BF000024402A
:101C80003946002304980A2200F0D6FC139B002B4F
:101C9000074640F3FE820D960A93002D05DD394676
:101CA00004982A4600F0FEFE0746089B002B40F0F1
:101CB000E481B846059E0A9C731E1C44069B03F0F3
:101CC0000103CDE90B43049C00995046FFF744FB08
:101CD00039468346504600F059FF00990546424672
:101CE000204600F075FFC3680BF130090146ABBB1D
:101CF0000A90504600F04AFF0A990890204600F0EA
:101D000077FC089A002A54D1029B1BB90C9B002B2C
:101D100000F0AB82002D3FDB0B9BB346B3420BF8C8
:101D2000019B00F0C181514600230A22204600F0A9
:101D300083FC4745824639464FF000034FF00A02C4
:101D4000204630D000F078FC4146074600230A22A6
:101D5000204600F071FC5E468046B5E7049800F02E
:101D600047FC002D06DB069B03F00102029B1D438E
:101D70002A4329D151460122049800F093FE00998C
:101D8000824600F003FF002840F3F680B9F1390FD6
:101D900000F048820BF131090D9D06F8019B3C468D
:101DA0000135474600E700F047FC5E46074680469F
:101DB0008AE7002DC0F29D82029B1D430C9B1D43B0
:101DC00000F09782002AA7DDB9F1390F00F02A82CE
:101DD0000D9D09F101033C4606F8013B01354746DC
:101DE000E2E6029B022B7FF798AE0A9B002B40F0A5
:101DF000238100990498052200F01EFC0146009002
:101E0000504600F0C3FE002840F31681059E0D9D4C
:101E1000312306F8013B01350099049800F0E8FBF6
:101E20000135002F7FF4CEAED0E60099504600F089
:101E3000ADFE0028BFF66DAE5146002304980D9C00
:101E40000A2200F0F9FB0E9B661E8246002B7FF4EF
:101E500017AF139B002B40F30F820D9D0A9362E690
:101E600001461A46049800F0ADFD029B0090012B3C
:101E70006FDD00230893009A136902EB830318694E
:101E800000F082FCC0F120001CE6964B0593033362
:101E9000FFF7E1BB069B002B7FF413AEDDE90612D2
:101EA000C2F31303002B7FF40CAE8F4B13402BB106
:101EB0000C9B01330C930BF1010B0123089A08933F
:101EC000002A3FF4FEADD6E73FF40DAEC0F13C036F
:101ED000B5E601230E930B9B0D9A13441393013324
:101EE000012B1F460A93B8BF0127049B172FDE69F9
:101EF00040F2FB81012204235B0003F11400B8428D
:101F0000114602F10102F7D97160FFF7F7BB012317
:101F10000E930B9B002B36DD1F4613930A93E4E7C9
:101F200000230E93D7E700230E93F2E7109B089A45
:101F30001096F31A1A4408920A9B0C9A15461A44F2
:101F40009B440C9200260498012100F06FFC074688
:101F50008FE5069B002B8CD1DDE90601C1F313034D
:101F60000A46002BA1D0089085E79DED007B022753
:101F70008DED147BFFF7F0BB7FF40EAF19F0010F6E
:101F80007FF404AF08E70123CDE90A33FFF7B0BBC4
:101F900003D119F0010F7FF4F8AD5E461BF8013D47
:101FA000302BFAD000E6129A002A00F0078103F2E3
:101FB00033430C9A109E15461A449B440C92C2E778
:101FC000059A312301351370EEE500F0FB800D9A80
:101FD000464B554205F00F0203EBC203D3E9002341
:101FE000DDE9000102F038FC2D11CDE9140100F00B
:101FF00057813F4E0023022780468946EA0709D5CC
:10200000D6E900234046494602F026FC01378046C7
:10201000894601236D1006F10806EFD1002B7FF4ED
:10202000B4ABDDE91489FFF7B0BBC8F10103834607
:102030000C931190FFF74CBB059EA5E4DDF800A0C2
:1020400002460B4602F052FA0D9D02460B46CDE9C0
:1020500000230135DDE90223A84602F08DFE40B9D8
:10206000DDE90223DDE9000102F05EFE18B1F307AD
:1020700001D5059A2BE43E46A8E57968049800F05E
:1020800077FA0546002800F029813B6902339A005F
:1020900007F10C010C3001F053FA04982946012293
:1020A00000F000FD804605E60D9D3C4601354746A3
:1020B0005FE5049C39463246204600F083FC5246D8
:1020C00001460746204600F0C7FB514680462046A1
:1020D00000F08EFA109B9B1BC24610933FF4E4ACB9
:1020E000DCE400BF083705080000F07FA02E0508DB
:1020F000902F0508DDE91623DDE9140102F0ACFBA1
:10210000059B1C70189B012BCDE90E0100F0BF80D0
:10211000189F059B12961F447E4B0022404649465D
:1021200002F09AFB0D46044602F046FE814602F09C
:1021300029FB09F1300902460B462046294602F0E8
:10214000D3F906F8019BB74280468946E4D1129D37
:10215000714B0022DDE90E0102F0C8F902460B4680
:102160004046494602F008FE00286FD1DDE90E2303
:102170006949002002F0B8F902460B46404649463C
:1021800002F0DCFD88B91B9B002BFFF66DAC0D9BAC
:102190000E2B3FF769AC614B0D9A03EBC20393ED35
:1021A000007B8DED027BFFF7F4BB3E46013F16F846
:1021B000013C302BF9D0199D013507E51A9BC3F17D
:1021C0003603F6E6DDE900890227FFF7DEBA0A9B4F
:1021D000002B3FF486AB139C002C7FF7ABAB0D9B21
:1021E000013B00224046494619934A4B02F034FB1A
:1021F00080468946781C02F0C5FA42464B4602F0FA
:102200002BFB474B002202F071F9A1F15073CDE98D
:10221000140118941593FFF7DBBA08F10108312374
:10222000FFF75CBB0D9D059AB34639233C460BF87E
:10223000013B01354746ADE4002300931F46E5E529
:102240000C9A15461A449B440C927CE6199B059AFD
:1022500003F10108FFF73BBBDDF850A0ABE7DDF869
:1022600058B0DDF850A0FFF765BBB9F1390FD9D0F0
:10227000002D3FF78FAD8FE5029B022B03DC139BF4
:102280000D9D0A934FE4139B0A930D96ADE53746D7
:102290005EE7029B022BF6DC139B0D960A93FCE48F
:1022A000DDE914890227FFF770BA1E4B0593FFF78B
:1022B0002CB91D4B1D48EF2101F0DCF90498C369CE
:1022C00000255D60294600F053F90590A8B9184B28
:1022D0001648002240F2AF1101F0CCF9144B13481C
:1022E0002A4640F2EF2101F0C5F900217160FFF7A5
:1022F00005BA002A3FF73EAD4EE5049B059ADB691F
:102300000B951A604FF0FF33012213930E920A933C
:10231000FFF710BB000024400000E03FA02E05089E
:1023200000001C40FC3605080C370508243705085A
:1023300060370508002950D038B551F8043C0C1F0F
:10234000002BB8BFE418054600F006F9274A1368C9
:102350002BB1A3420CD92168601883422CD0636052
:1023600028461460BDE8384000F0FCB8A3420FD8FE
:102370001A465B68002BF9D111685018844217D0B7
:102380002CD3636054602846BDE8384000F0EAB8BA
:1023900011685018A04214D020D8216860188342D8
:1023A000EFD118685B680844C4E900035460EAE7A9
:1023B00023680B441360E6E718685B6808442060F4
:1023C000CDE720680144501883421160DBD1D3E986
:1023D00000040144C2E90014D5E770470C232B60C8
:1023E0002846BDE8384000F0BDB800BF2C040020EE
:1023F000024B0146186800F02FB800BF0C00002007
:10240000024B01461868FFF795BF00BF0C00002083
:1024100070B5104E336805460C46B3B121462846C8
:1024200000F000FF431C0CD0C41C24F00304A042A5
:1024300005D0211A284600F0F5FE013001D02046D3
:1024400070BD4FF0FF34204670BD194600F0EAFE23
:102450003060E3E7280400202DE9F843CD1C25F087
:10246000030508350C2D38BF0C25002D064618DB5A
:10247000A94216D8DFF8DC8000F06EF8D8F8042006
:10248000A2B1144603E0636822467BB11C46236870
:102490005B1BF8D40B2B1FD89442636854D0536055
:1024A0000CE00C2333600020BDE8F8832946304659
:1024B000FFF7AEFF431C044619D00560304600F01C
:1024C00051F804F10B00231D20F00700C21A1CBFB5
:1024D0001B1AA350BDE8F88361199442256014BF0C
:1024E0005160C8F80410635163684B60E6E7D8F8A0
:1024F00004701FB33C467F68002FFBD12368394628
:10250000304604EB030900F08DFE814516D12368A7
:10251000ED1A29463046FFF77BFF01300ED02368C5
:10252000D8F804202B442360536883B1A34203D01E
:102530001A465B689C42FBD10023B0E70C23336052
:10254000304600F00FF8AEE7C8F80430B6E7C8F838
:102550000470B3E7280400200148FEF719BE00BF4D
:10256000180400200148FEF71BBE00BF180400201D
:1025700070B5C66905460C465EB1F368A3B153F861
:102580002400E8B1026843F824200023C0E90333A3
:1025900070BD1020FFF72CFF0646E861E8B100236C
:1025A000C0E90033C0E9023321220421284601F0AA
:1025B00087F8EB69F060DB68002BE0D1002070BD8C
:1025C000012101FA04F6721D9200284601F078F804
:1025D0000028F3D0C0E90146D7E7034B0348324651
:1025E0006B2101F047F800BF0C3705087437050868
:1025F00070B5C66905460C464EB13CB1EB696268E0
:10260000DB6853F82210216043F8224070BD10208F
:10261000FFF7EEFE0246E86120B1C0E90066C0E9BE
:102620000266EAE7024B03488F2101F023F800BF5E
:102630000C370508743705082DE9F0410D69074688
:102640000E461C4601F1140E0020DEF800108BB27D
:1026500002FB03434FEA134C090C02FB01CC01308F
:102660009BB203EB0C4385424EF8043B4FEA1C44FB
:10267000EBDC3CB1B368AB4207DD06EB850301350B
:102680005C6135613046BDE8F081716838460131E2
:10269000FFF76EFF804690B13269023206F10C01FD
:1026A00092000C3000F04CFF314638464646FFF7AA
:1026B0009FFF06EB850301355C613561E2E7034B63
:1026C00003484246BA2100F0D5FF00BF6037050835
:1026D000743705082DE9F8431746284A1E46083383
:1026E0000C46092E82FB03124FEAE3730546C3EB47
:1026F00062033ADD4FF0010C00214FEA4C0C6345B8
:1027000001F10101F9DC2846FFF732FF014670B301
:10271000089B4361092F4FF00103036112DC0A3467
:102720000927BE420BDDF61B264414F8013B0A22A2
:10273000303B2846FFF780FFB4420146F5D10846FA
:10274000BDE8F88304F1090804EB0709444614F8CE
:10275000013B0A22303B2846FFF76EFF4C450146FD
:10276000F5D1A7F108044444DBE70021CBE70A4692
:10277000034B0448D32100F07DFF00BF398EE338BE
:102780006037050874370508B0F5803F034636BF4B
:10279000030400201020B3F1807F3CBF1B020830EF
:1027A000B3F1805F3CBF1B010430B3F1804F03D312
:1027B000002B06DB013070479B0003D45B0003D481
:1027C000202070470230704703307047036813F0D1
:1027D0000702014607D0DA071FD4980721D55B0806
:1027E0000B600120704798B2A0B11046DAB20AB966
:1027F00008301B0A1A0704BF1B0904309A0704BFDC
:102800009B080230DA0703D45B0800F1010006D010
:102810000B6070471B0C1020E8E700207047202059
:1028200070479B080B600220704700BF10B50C4634
:102830000121FFF79DFE024618B10123C0E90434CF
:1028400010BD034B034840F2451100F013FF00BFD9
:1028500060370508743705082DE9F04FD1F810806E
:102860001569A84585B00E46924605DB2A465346B3
:1028700045468A4690461E46DAF80830DAF80410D3
:1028800005EB0804A342B8BF0131FFF771FE84468F
:10289000002800F08B8000F1140707EB840E7745C9
:1028A00005D23B46002243F8042B9E45FBD8143644
:1028B00006EB88080AF11409464509EB850566D23E
:1028C000A5EB0A03153B23F003030AF1150A0433B1
:1028D00055452CBF9B464FF0040BCDF808E0039400
:1028E000AE46E24605E0090C2AD1B04507F10407DF
:1028F0004AD956F8041B8DB2002DF4D0CC463C4684
:10290000002301965CF8040B216886B28AB2000CA1
:1029100005FB0622090C1A4405FB001101EB1241CC
:1029200092B242EA0142E64544F8042B4FEA1143D1
:10293000E8D8019E47F80B3056F8041C090CD4D097
:102940003B68002248461D463C469446028801FBEF
:1029500002C202EB15429BB243EA024344F8043B35
:1029600050F8043B25684FEA134CABB201FB0C3323
:1029700003EB124370454FEA134CE7D3B04547F8D9
:102980000B3007F10407B4D8DDE902E4D446002C8B
:1029900002DC05E0013C03D05EF8043D002BF9D0D9
:1029A0006046CCF8104005B0BDE8F08F034B0448FA
:1029B00062464FF4B17100F05DFE00BF603705085C
:1029C000743705082DE9F04312F0030383B0144671
:1029D00007462DD10E46A4101CD0FA698AB395681B
:1029E000002D39D0E3074FF0000906D4641011D050
:1029F000286898B10546E307F8D531462A46384697
:102A0000FFF72AFF314680463846FFF7F1FD641094
:102A10004646EDD1304603B0BDE8F0832A4629464C
:102A20003846FFF719FF2860C0F800900546E2E736
:102A3000013B184A52F823200023FFF7FDFD06460C
:102A4000C9E71020FFF7D4FC0246F861E0B100238B
:102A5000C0E90033C0E90233012138460192FFF793
:102A600087FD019A054640B1012340F27121C0E97A
:102A70000431002390600360B4E7074B07482A46FF
:102A800040F2451100F0F6FD054B044840F2B31149
:102A900000F0F0FD902E0508603705087437050832
:102AA0000C3705082DE9F0470D4691462B6949681A
:102AB00003EB6218AB6808F101049C4207464FEA39
:102AC000621A04DD5B009C4201F10101FADC384628
:102AD000FFF74EFD064600284DD0BAF1000F00F179
:102AE00014000EDD0AF105024FEA820C034606EBE4
:102AF0008202002143F8041B9342FBD1ACF1140382
:102B00001844296905F1140319F01F0903EB810129
:102B100029D0C9F1200E84464FF0000A1A6802FA43
:102B200009F242EA0A024CF8042B53F8042B9942AA
:102B300022FA0EFAF2D84B1B153B23F003030433A1
:102B400005F11502914238BF042340F803A0BAF101
:102B5000000F00D14446384634612946FFF748FD4E
:102B60003046BDE8F087043853F8042B40F8042FB2
:102B70009942F9D8EEE7034B034832464FF4EF7120
:102B800000F078FD60370508743705080B69844646
:102B90000069C01A16D10CF1140C14310CEB83022D
:102BA00010B401EB830301E0944508D252F8044DC0
:102BB00053F8041D8C42F7D005D24FF0FF305DF87A
:102BC000044B7047704701205DF8044B704700BF0D
:102BD0002DE9F04F15460A692B69D21A002A83B0F5
:102BE000884640F0878001F1140605F1140101EBDD
:102BF000830106EB830301E09E427ED253F8044D2D
:102C000051F8042D9442F7D075D32B460024454645
:102C100098466968FFF7ACFC8146002800F089807F
:102C20002E69C460D8F8100005F1140B08F1140ED9
:102C300009F1140A05F110020EEB80000BEB86017E
:102C400057464FF0000CCDF804B05EF8044B52F834
:102C5000045F1FFA84FBABB2A3EB0B03240C6344A9
:102C6000C4EB154404EB23449BB243EA0443704590
:102C700047F8043B4FEA244CE7D8A0EB080208F1E0
:102C800015084045A2F1150234BF0020012092082A
:102C90000028DDF804B002F101044FEA840408BF03
:102CA00004240BEB0405A942544433D92746284693
:102CB00050F8043B1CFA83FE1A0C634402EB2E42CC
:102CC0009BB243EA0243814247F8043B4FEA224C5D
:102CD000EED80139491B21F003010C4423B954F803
:102CE000043D013E002BFAD04846C9F8106003B0FD
:102CF000BDE8F08F89DA01248BE70021FFF738FC6B
:102D0000814678B101220023C0E90423484603B07C
:102D1000BDE8F08F00284FEA820208BF00220AEBCC
:102D20000204DBE7064B07484A4640F2372100F031
:102D3000A1FC034B03484A4640F2452100F09AFCAF
:102D4000603705087437050882B08DED000B164B0F
:102D5000019A1340A3F15073002B06DD002219469F
:102D6000104641EC100B02B070475B42B3F1A07FFC
:102D70004FEA235209DA4FF4002313410022194687
:102D8000104641EC100B02B07047A2F114031E2B49
:102D9000DABF4FF00042DA40012200231946104604
:102DA00041EC100B02B070470000F07FF8B50469E9
:102DB00000F1140606EB8404271F54F8045C28462F
:102DC000FFF7E2FCC0F120030A280B6033DDBE42AE
:102DD000A0F10B0119D254F8080C21B3C1F120075E
:102DE0008D4020FA07F215438840A4F1080145F010
:102DF0007F538E4243F4401319D254F80C1CF9400F
:102E00000843024643EC102BF8BD0B280AD005FA04
:102E100001F141F07F53002043F44013024643EC9C
:102E2000102BF8BD002045F07F5343F440130246B9
:102E300043EC102BF8BDC0F10B0C25FA0CF1BE428F
:102E400041F07F5338BF54F8081C00F1150034BF1F
:102E500021FA0CF1002105FA00F0084343F4401375
:102E6000024643EC102BF8BD2DE9F0430E4683B02B
:102E7000012159EC108B1546FFF77AFB0446002818
:102E800046D0C9F30A57C9F313030FB143F48013B3
:102E90000193B8F1000313D101A8FFF797FC019B40
:102EA00063610122203022610FB3A7F23347074448
:102EB000C0F1350037602860204603B0BDE8F083DC
:102EC00068460093FFF782FC019BF8B10099C0F1BE
:102ED000200203FA02F2C3400A430193002B62610D
:102EE0000CBF01220222A3612261002FDDD104EB7D
:102EF0008203A0F2324030601869FFF745FCC0EB56
:102F000042102860204603B0BDE8F083009AE5E750
:102F1000034B0448224640F20F3100F0ABFB00BFE8
:102F200060370508743705082DE9F04383B08846FB
:102F300069468146FFF73AFF01A9404655EC104B20
:102F4000FFF734FFD8F81030D9F81020D21ADDE995
:102F500000315B1A03EB4213002B59EC108B0DDD93
:102F600005EB03573D4642464B462046294601F0B5
:102F70009DFD41EC100B03B0BDE8F083C3EB0333C0
:102F800009EB03518946EEE7172870B506460CDDBC
:102F90000A490B4D0020002422462B4601F05CFC20
:102FA000013EF9D141EC100B70BD064B03EBC003A1
:102FB000D3E9040141EC100B70BD00BF0000F03FED
:102FC00000002440902E05080139491101F1010C3F
:102FD000116902F1140303EB81018B4200EB8C0CAD
:102FE00016D210B5A0F1040E53F8044B4EF8044F5E
:102FF0009942F9D88B1A153B23F003030433184484
:10300000844504D9002340F8043B8445FBD810BD17
:10301000844505D9002340F8043B8445FBD870471C
:10302000704700BF03694A11934200F1140009DAA6
:1030300000EB830302E053F8042DAAB98342FAD8C7
:103040000020704700EB8203F8DD11F01F01F5D07E
:1030500010B450F8224024FA01F28A40944209D078
:1030600001205DF8044B70470120704753F8042D90
:10307000002AF5D18342F9D800205DF8044B70474F
:10308000B1F90C302DE9F0411E070C4680463DD4C5
:103090004A68002A56DDE56A002D34D00022D8F8AF
:1030A0000060C8F8002013F48052216A57D1012330
:1030B0004046A847451C024666D0B4F90C30E56A84
:1030C000216A580705D56368D21A636B0BB1236C6C
:1030D000D21A00234046A847431C42D00023636015
:1030E00023692360A389DF0400D56065616BC8F89C
:1030F000006041B104F14403994202D04046FFF719
:1031000019F9002363630020BDE8F0810E69002EE9
:10311000F9D09B070D6808BF4B690E6018BF0023EC
:10312000AD1B8B600BE02B463246216AA76A4046F6
:10313000B847B0F1000CA5EB0C05664406DD002D88
:10314000F1DCE0E70A6C002AA5DCDCE7B4F90C301E
:1031500043F04003A3814FF0FF30BDE8F081626D82
:10316000AFE7D8F80010B4F90C301D29F0D80C4A9C
:10317000CA40D507ECD52269226000226260DA04D9
:10318000B4D50029B1D0B1E7D8F80030002B94D0E5
:103190001D2B01D0162BD9D1C8F80060B3E700BFB2
:1031A0000100402038B50B69CBB10C46054608B18B
:1031B000036ABBB1B4F90C308BB1626ED00701D495
:1031C000990512D528462146FFF75AFF636EDA07A4
:1031D000054602D4A3899B050BD5284638BD00259A
:1031E000284638BDFDF736FEE4E7A06DFDF7D0FFB9
:1031F000E8E7A06DFDF7D4FFEFE700BF014618B187
:10320000044B1868FFF7CEBF034A04490448FDF792
:1032100071BE00BF0C00002000000020A531000896
:103220001000002038B5074D0022044608462A60E9
:1032300002F068F9431C00D038BD2B68002BFBD08E
:10324000236038BD040400200000000000000000DE
:10325000000000000000000000000000000000006E
:1032600002780B78012A28BF9A4240F0D8806DE995
:10327000044540EA0104CDE902676FF0000C4FEA13
:1032800044721AB380EA010414F0070F6BD100F006
:10329000070420F0070004F0030521F007014FEABE
:1032A000C505F0E8042314F0040FF1E804670CFAF4
:1032B00005F462EA040266EA04060BD063EA04033A
:1032C000624667EA0407664604E000BFF0E80423AC
:1032D000F1E8046782FA4CF582EA0604A4FA8CF459
:1032E0006CBB83FA4CF583EA0705A5FA8CF595B912
:1032F00050E9022351E9026782FA4CF582EA06049A
:10330000A4FA8CF483FA4CF583EA0705A5FA8CF548
:103310002543DBD09CB92DBAB5FA85F424F0070417
:1033200027FA04F1DDE9026723FA04F303F0FF0052
:1033300001F0FF01FDE80445A0EB0100704724BA4D
:10334000B4FA84F424F0070426FA04F1DDE90267F4
:1033500022FA04F202F0FF0001F0FF01FDE804454B
:10336000A0EB0100704714F0030F3CD110F00304F0
:1033700028D150F8082B51F8083B82FA4CF582EA24
:103380000305A5FA8CF55DB950F8042C51F8043CFE
:1033900082FA4CF582EA0305A5FA8CF5002DE8D0F7
:1033A0002DBAB5FA85F424F0070423FA04F122FAC1
:1033B00004F202F0FF0001F0FF01FDE80445A0EB7C
:1033C000010070474FEAC40420F0030050F8082BB6
:1033D00021F0030151F8083B0CFA04F462EA0402FC
:1033E00063EA0403C9E710F003041DD0A1EB040154
:1033F00020F00300E40750F8042B06D012D28B789B
:103400005FFAA2F4E41A06D12BB1CB785FFAB2F4DA
:10341000E41A00D133B920465DF8104B7047A2EB97
:103420000300704701F1040150F8042BCC0721F090
:10343000030151F8043B48D824D222F07F4482FA99
:103440004CF594EA1325A5FA8CF50AD165B951F823
:10345000043B84EA0204B4EB036F0ED150F8042B52
:10346000EBE74FEA132355E035F07F454DD108785F
:10347000FDE80445C0F1000070474FEA126203F016
:10348000FF0347E002EA1C4482FA4CF594EA134534
:10349000A5FA8CF50AD165B951F8043B84EA020417
:1034A000B4EB034F0CD150F8042BEBE74FEA134376
:1034B00030E015EA1C4528D10B884FEA124229E07A
:1034C0004FEA124203EA1C4324E002F0FF0482FAAE
:1034D0004CF594EA1365A5FA8CF50AD165B951F853
:1034E000043B84EA0204B4EB032F09D150F8042B07
:1034F000EBE74FEA13630DE015F0FF0F05D10B6802
:103500004FEA122223F07F4304E04FF00000FDE871
:103510000445704712BA1BBA82FA4CF482EA0304DB
:10352000A4FA8CF5B5FA85F402FA04F203FA04F36E
:103530004FEA1260FDE80445A0EB1360704700BF3E
:10354000844641EA000313F003036DD1403A41D3AE
:1035500051F8043B40F8043B51F8043B40F8043B6D
:1035600051F8043B40F8043B51F8043B40F8043B5D
:1035700051F8043B40F8043B51F8043B40F8043B4D
:1035800051F8043B40F8043B51F8043B40F8043B3D
:1035900051F8043B40F8043B51F8043B40F8043B2D
:1035A00051F8043B40F8043B51F8043B40F8043B1D
:1035B00051F8043B40F8043B51F8043B40F8043B0D
:1035C00051F8043B40F8043B51F8043B40F8043BFD
:1035D000403ABDD2303211D351F8043B40F8043B9D
:1035E00051F8043B40F8043B51F8043B40F8043BDD
:1035F00051F8043B40F8043B103AEDD20C3205D3AD
:1036000051F8043B40F8043B043AF9D2043208D0A4
:10361000D2071CBF11F8013B00F8013B01D30B8816
:1036200003806046704700BF082A13D38B078DD0F4
:1036300010F003038AD0C3F10403D21ADB071CBFC6
:1036400011F8013B00F8013B80D331F8023B20F830
:10365000023B7BE7043AD9D3013A11F8013B00F869
:10366000013BF9D20B7803704B7843708B788370F1
:103670006046704700B50B4C25681446EE681A4644
:1036800085B003460D464CB107490095CDE90114BC
:103690003046064900F06EF800F080F804490C4608
:1036A000F3E700BF0C000020C0370508D03705083D
:1036B000CC37050808B513460022FFF7DBFF00BF33
:1036C00070B5A1FB025454B92946FEF7C5FE064663
:1036D00018B12A462146FDF779FC304670BD0C2210
:1036E00002600026F9E700BF10B4034CD4F8E440B0
:1036F000A4465DF8044B60475C00002082B049B1ED
:103700005AB16BB113780B601278101E18BF0120EC
:1037100002B0704701A9002AF3D1104602B07047E9
:103720006FF00100F4E700BF10B4034CD4F8E040A0
:10373000A4465DF8044B60475C00002049B1FF2AB5
:1037400002D80A70012070478A2303604FF0FF30CF
:1037500070470846704700BF0CB400B583B004AB97
:1037600053F8042B019300F067F803B05DF804EB05
:1037700002B070470EB410B583B005AB064C53F8D9
:10378000042B01930146206800F056F803B0BDE811
:10379000104003B0704700BF0C00002008B50620A1
:1037A00000F0FEFC012001F0FBFE00BF9368013B2E
:1037B000002B936011DA10B49469A34209DB0A2943
:1037C00007D01368581C1060197008465DF8044B48
:1037D00070475DF8044B00F01DBB1368581C106067
:1037E00019700846704700BF9BB1F8B513440646F0
:1037F0000F46541E5D1E01E0AC4208D014F8011FB4
:103800003A463046FFF7D2FF431CF5D1F8BD002001
:10381000F8BD0020704700BF936810B514461BB96F
:1038200018460023636010BD00F074F90023A36004
:103830000023636010BD00BF2DE9F04FA1B08B469F
:1038400091461C46049018B1036A002B00F0478192
:10385000DBF86420BBF90C30D20702D49F0540F19D
:1038600037811E0740F19E80DBF81030002B00F0FE
:1038700099800023CA460D9343F22003ADF83930F6
:103880009AF80030974E07940127002B7AD0D14642
:1038900004E019F8013F002B00F09A80252BF8D1A5
:1038A000B9EB0A0840F0978099F80030002B69D0F6
:1038B00000234FF0FF32CDE9092309F101090893F4
:1038C0000B938DF863301E9305E0089A07FA03F313
:1038D0001A430892A1464C46052214F8011B3046B3
:1038E000FDF766FCA246831B0028EED1089BD80694
:1038F00044BF20228DF86320190799F8001044BFB7
:103900002B228DF863202A297BD1079A1168043273
:1039100000290792C0F2B0800B9199F801102E296E
:1039200000F08680704C03222046FDF741FC38B140
:10393000089B001B4022824013430AF1010A0893AE
:103940001AF8011B69488DF838100622FDF730FC83
:10395000002800F09780664B002B7ED007AA0092CB
:10396000644B04985A4608A9FCF7F4FC0390039BA7
:10397000013307D00D9B039A13440D939AF800303E
:10398000002B84D1DBF8643013F0010FBBF80C304E
:1039900002D19A0540F195805B0616D40D9821B0AE
:1039A000BDE8F08F0498594600F084FA00283FF4EF
:1039B00060AFDBF86430DD0707D4BBF80C309C0542
:1039C00003D4DBF85800FDF7EBFB4FF0FF30E6E7E0
:1039D000B9EB0A08D6D00AF1FF35CDF81490A94604
:1039E000049D01E0A0453FD94C465A4619F8011FF5
:1039F0002846FFF7DBFE02340130A4EB0A04F1D1C4
:103A0000C0E7A1F13002092A88BFCA4687D80B9BBC
:103A100000E00134217803EB830302EB4303A1F1BF
:103A20003002092AF5D92E290B93A2467FF47AAFEA
:103A30009AF801102A292FD1079B9AF802101A68C8
:103A400009920433002A0AF102000793B8BF4FF02D
:103A5000FF338246B8BF099364E7079B073323F01F
:103A600007030833079385E70D99DDF81490414467
:103A700099F800300D9119E7494243F002030B9188
:103A800008934AE707AA00921A4B04985A4608A9D5
:103A9000FCF780FF03906AE7A1F130020023092AB6
:103AA00009930AF1010A3FF63DAF1AF8011F03EB33
:103AB000830302EB4303A1F13002092AF5D90993EC
:103AC00030E7DBF85800FDF76BFBBBF80C3063E721
:103AD000DBF85800FDF75CFBBBF90C30C1E6FDF7E5
:103AE000B9F9B5E600380508083805080C380508A6
:103AF00055030008E937000810B4054C8446134606
:103B000020685DF8044B0A466146FFF795BE00BF8A
:103B10000C0000209368002B00F0F8802DE9F04F96
:103B2000B1F90CC01CF0080F83B0904681460C46DA
:103B300031D00B697BB31CF00207D8F8006038D095
:103B40000027D4F828B0216ADFF8C4A23D465545C5
:103B50002B463A4628BF53464846C5B1D8470028A9
:103B600040F3CA80D8F808301B1A07442D1AC8F849
:103B70000830002B00F0B68055452B46D4F828B00D
:103B8000216A28BF53463A464846002DE6D1D6E979
:103B900000750836DBE72146484600F08BF900281F
:103BA00040F0AF80B4F90CC0D8F800601CF00207F8
:103BB000C6D11CF0010A63D12368A1685746184694
:103BC0008B46002F58D01CF4007F00F0B580B9421E
:103BD0000A4600F2E1801CF4906F2FD021696269DF
:103BE0005D1A02EB420202EBD2726B1C52103B4494
:103BF000934292BF93469B461A461CF4806F00F096
:103C0000EA8011464846FEF727FC002800F0F980BC
:103C10002A4621690090FFF793FCA289009B22F4B9
:103C2000906242F08002A2815819ABEB0505C4F8FE
:103C300014B02361A5602060BB463A46514600920D
:103C400000F09AF9A1682368009AA1EB0B011A44CD
:103C50003D46A16022600027D8F808305B1BAA44CB
:103C6000C8F80830002B3DD02368A168B4F90CC017
:103C700018468B46002FA6D1D6E900A708369EE746
:103C80003846BB463D460097002D41D0002846D01F
:103C9000009A2068A168D4E90473AA4228BF2A4682
:103CA000B84204D901EB030A524500F385809342E0
:103CB00075DC216AA76A5A464846B847B0F1000A3F
:103CC0001ADD009BB3EB0A0300930FD00120D8F854
:103CD0000830A3EB0A03D344A5EB0A05C8F8083063
:103CE000002BD1D1002003B0BDE8F08F214648461B
:103CF000FFF758FA0028EAD0B4F90C3043F040033B
:103D0000A3814FF0FF3003B0BDE8F08F0020704773
:103D1000756833460836002DFAD0D3F800B02A462D
:103D20000A215846FDF744FA002867D00130A0EB7D
:103D30000B0300931A46ACE722699A4214D36269D6
:103D4000BA4211D86FF00043BB4228BF3B46A56A78
:103D500093FBF2F3216A02FB03F348465246A8475D
:103D6000051EC9DD7F1B77E7B94228BF39460D46DE
:103D700018460A46514600F0FFF8A1682368491B1F
:103D80002B44A16023600029ECD121464846FFF76F
:103D900009FA0028E6D0AFE7BB463A464EE7594657
:103DA000019200F0E9F8019AA3689B1AA3602368C6
:103DB00013442360924684E75946524600F0DCF8EB
:103DC00023685344236021464846FFF7EBF9002857
:103DD0003FF477AF90E7484600F096FA0346002894
:103DE0007FF422AF21694846FEF7A4FAB4F90C30FB
:103DF0000C22C9F8002023F080037FE76A1C0092A0
:103E000047E70C22B4F90C30C9F8002076E700BF70
:103E100000FCFF7FF8B50D461446064610B1036A54
:103E2000002B37D0A389A269A2601A0719D523698C
:103E3000BBB122686169D31AEDB299422F4620DDE9
:103E40000133A1680139A160511C216015706269BC
:103E50009A420DD0A389DB0701D50A2D08D0384638
:103E6000F8BD2146304600F025F838B92369E0E76F
:103E700021463046FFF796F90028F0D04FF0FF3783
:103E8000EDE721463046FFF78DF90028F6D122688C
:103E90000123D6E7FCF7DEFFC4E700BF10B4044CF3
:103EA00003460A4620685DF8044B1946FFF7B2BF87
:103EB0000C00002038B52F4B1B6805460C4613B18B
:103EC0001A6A002A4BD0B4F90C3018071CD52269A5
:103ED00022B313F0010107D0616900204942A060BC
:103EE000A1613AB1002038BD980758BF6169A1604F
:103EF000002AF7D1190658BF1046F4D543F0400305
:103F0000A3814FF0FF3038BDD9062CD55A0712D403
:103F1000226943F00803A381002ADAD103F4207157
:103F2000B1F5007FD5D02146284600F01FFAB4F93C
:103F30000C302269CDE7616B51B104F1440291422A
:103F400004D02846FEF7F6F9B4F90C30002262637B
:103F500022690021C4E9002123F02403D9E718468F
:103F6000FCF778FFAFE7092243F040032A60A38102
:103F7000C7E700BF0C00002088420ED98B1883428F
:103F80000BD900EB020C002A6ED0624613F801CD6B
:103F900002F801CD9942F9D170470F2A0FD8034694
:103FA00002F1FF3C002A5FD00CF1010C013B8C4474
:103FB00011F8012B03F8012F6145F9D1704740EA50
:103FC00001039B0751D1A2F1100370B501F1200C40
:103FD00023F00F0501F1100E00F11004AC441B0991
:103FE0005EF8105C44F8105C5EF80C5C44F80C5C05
:103FF0005EF8085C44F8085C5EF8045C44F8045C15
:104000000EF1100EE64504F11004E9D1013312F06F
:104010000C0F01EB031102F00F0400EB031328D087
:10402000043C24F003064FEA940C1E441C1F8E46E9
:104030005EF8045B44F8045FB442F9D10CF101046A
:1040400002F0030203EB840301EB840102F1FF3C65
:104050004AB10CF1010C013B8C4411F8012B03F81F
:10406000012F6145F9D170BD704702F1FF3C034655
:104070009AE72246EAE700BF38B5C46B0CB10020CE
:1040800038BD80210546FEF7E7F90246E86330B106
:10409000031F7C3243F8044F9342FBD1EFE74FF00C
:1040A000FF3038BD30B51F2983B0054608D8C36B33
:1040B0000C4653B153F8240043F8242003B030BD1C
:1040C000162303604FF0FF30F8E780210192FEF7DE
:1040D000C3F9019AE86303460028F3D0011F00F1F9
:1040E0007C05002041F8040FA942FBD1E2E700BFA4
:1040F0001F2938B505461ED8C26B0C466AB152F866
:10410000213053B1012B06D0591C10D0002142F8A8
:10411000241020469847002038BD284600F0F2F8C9
:10412000224601462846BDE8384000F0D5B816239F
:104130000360012038BD162303604FF0FF3038BD07
:104140001F292AD838B5C36B0C460546A3B153F8CE
:10415000242003EB84034AB1511C0BD0012A07D061
:10416000002520461D609047284638BD012038BDF7
:10417000032038BD022038BD8021FEF76DF90346CB
:10418000E86338B1021F00217C3042F8041F8242EC
:10419000FBD1DCE74FF0FF3038BD4FF0FF30704708
:1041A00038B5134B1F281D681DD8EA6B044662B151
:1041B00052F820304BB1012B05D0591C0FD00021F3
:1041C00042F820109847002038BD284600F09AF8A1
:1041D000224601462846BDE8384000F07DB8162347
:1041E0002B60012038BD16232B604FF0FF3038BD07
:1041F0000C000020114B1F2870B51E6808D8F36B07
:1042000004460D464BB153F8240043F8245070BDCA
:10421000162333604FF0FF3070BD80213046FEF72B
:104220001BF90346F0630028F4D0021F00217C3004
:1042300042F8041F8242FBD1E5E700BF0C000020DA
:1042400038B50B4B1D68EC6B0CB1002038BD8021DC
:104250002846FEF701F9E86338B1031F00F17C023C
:1042600043F8044F9342FBD1EFE74FF0FF3038BDE6
:104270000C00002038B5174B1F281D6826D80446AF
:10428000E86BA0B150F8243000EB84004BB15A1C0D
:104290000BD0012B07D00025056020469847284603
:1042A00038BD012038BD032038BD022038BD802133
:1042B0002846FEF7D1F8E86340B1031F00F17C0106
:1042C000002243F8042F8B42FBD1DBE74FF0FF3095
:1042D00038BD00BF0C00002070B50C46084D0346E9
:1042E0000026204611461C462E6001F049F9431C69
:1042F00000D070BD2B68002BFBD0236070BD00BFC9
:104300000404002001F034B92DE9F041144641B312
:104310000AB306460D4600F0DBF88442074602D891
:10432000B4EB500F13D821463046FEF795F880467F
:1043300050B1BC422246294628BF3A46FFF700F951
:1043400029463046FDF7F6FF4046BDE8F081A84615
:104350004046BDE8F081A046FDF7ECFF4046BDE8D1
:10436000F081BDE8F0411146FEF776B870B5B1F9BD
:104370000C300C46990796B007D504F1470301228B
:10438000C4E90432236016B070BDB4F90E100029E0
:10439000054629DB6A4600F073F8002822DB4FF45B
:1043A00080612846019EFEF757F888B3A3892060F4
:1043B00043F0800306F47046A381B6F5005F4FF426
:1043C0008063C4E90403DED1B4F90E10284600F07E
:1043D0006DF80028D7D0A38923F0030343F001032D
:1043E000A381D0E7B4F90C3013F0800F14BF40263E
:1043F0004FF4806631462846FEF72EF840B1A38977
:10440000206043F08003C4E90406A38116B070BDA8
:10441000B4F90C309A05B6D423F0030304F1470233
:1044200043F002030121C4E90421A3812260AAE729
:1044300070B50C46B1F90E10002996B015461E460F
:104440000FDB6A4600F01CF800280ADB019B03F42E
:104450007043A3F50053B3FA83F34FF480625B0912
:1044600008E0A28912F0800F4FF0000314BF402231
:104470004FF48062002033602A6016B070BD00BF28
:1044800070B50C46084D03460026204611461C46D2
:104490002E6001F0B9F8431C00D070BD2B68002BD2
:1044A000FBD0236070BD00BF0404002038B5074D69
:1044B0000022044608462A6001F0B6F8431C00D0EA
:1044C00038BD2B68002BFBD0236038BD04040020CE
:1044D00051F8043C181F002BBCBF0B58C018704784
:1044E00081F0004102E000BF83F0004330B54FEAA5
:1044F00041044FEA430594EA050F08BF90EA020F12
:104500001FBF54EA000C55EA020C7FEA645C7FEAA4
:10451000655C00F0E2804FEA5454D4EB5555B8BFC7
:104520006D420CDD2C4480EA020281EA030382EA38
:10453000000083EA010180EA020281EA0303362DCA
:1045400088BF30BD11F0004F4FEA01314FF4801C9D
:104550004CEA113102D0404261EB410113F0004FAF
:104560004FEA03334CEA133302D0524263EB430366
:1045700094EA050F00F0A780A4F10104D5F1200E04
:104580000DDB02FA0EFC22FA05F2801841F100015F
:1045900003FA0EF2801843FA05F359410EE0A5F133
:1045A00020050EF1200E012A03FA0EFC28BF4CF064
:1045B000020C43FA05F3C01851EBE37101F000451A
:1045C00007D54FF0000EDCF1000C7EEB00006EEB27
:1045D0000101B1F5801F1BD3B1F5001F0CD34908B1
:1045E0005FEA30004FEA3C0C04F101044FEA445208
:1045F00012F5800F80F09A80BCF1004F08BF5FEA8F
:10460000500C50F1000041EB045141EA050130BD6E
:104610005FEA4C0C404141EB0101013C28BFB1F580
:10462000801FE9D291F0000F04BF01460020B1FACB
:1046300081F308BF2033A3F10B03B3F120020CDA9E
:104640000C3208DD02F1140CC2F10C0201FA0CF07C
:1046500021FA02F10CE002F11402D8BFC2F1200CE1
:1046600001FA02F120FA0CFCDCBF41EA0C01904097
:10467000E41AA2BF01EB0451294330BD6FEA0404E0
:104680001F3C1CDA0C340EDC04F11404C4F12002CB
:1046900020FA04F001FA02F340EA030021FA04F3DD
:1046A00045EA030130BDC4F10C04C4F1200220FA34
:1046B00002F001FA04F340EA0300294630BD21FA72
:1046C00004F0294630BD94F0000F83F4801306BF38
:1046D00081F480110134013D4EE77FEA645C18BF2C
:1046E0007FEA655C29D094EA050F08BF90EA020FC3
:1046F00005D054EA000C04BF1946104630BD91EABB
:10470000030F1EBF0021002030BD5FEA545C05D1BD
:104710004000494128BF41F0004130BD14F58004FC
:104720003CBF01F5801130BD01F0004545F0FE4170
:1047300041F470014FF0000030BD7FEA645C1ABFA5
:10474000194610467FEA655C1CBF0B46024650EADC
:10475000013406BF52EA033591EA030F41F4002108
:1047600030BD00BF90F0000F04BF0021704730B58E
:104770004FF4806404F132044FF000054FF0000163
:1047800050E700BF90F0000F04BF0021704730B524
:104790004FF4806404F1320410F0004548BF4042F9
:1047A0004FF000013EE700BF42004FEAE2014FEA4E
:1047B00031014FEA02701FBF12F07F4393F07F4F29
:1047C00081F06051704732F07F4208BF704793F02C
:1047D0007F4F04BF41F40021704730B54FF460743F
:1047E00001F0004521F000411CE700BF50EA010242
:1047F00008BF704730B54FF000050AE050EA0102EB
:1048000008BF704730B511F0004502D5404261EB5A
:1048100041014FF4806404F132045FEA915C3FF49B
:10482000D8AE4FF003025FEADC0C18BF03325FEA38
:10483000DC0C18BF033202EBDC02C2F1200300FAE9
:1048400003FC20FA02F001FA03FE40EA0E0021FA0E
:1048500002F11444BDE600BF70B54FF0FF0C4CF4FC
:10486000E06C1CEA11541DBF1CEA135594EA0C0FAE
:1048700095EA0C0F00F0DEF82C4481EA030621EAE9
:104880004C5123EA4C5350EA013518BF52EA033524
:1048900041F4801143F4801338D0A0FB02CE4FF0D6
:1048A0000005E1FB02E506F00042E0FB03E54FF006
:1048B0000006E1FB03569CF0000F18BF4EF0010EFE
:1048C000A4F1FF04B6F5007F64F5407404D25FEAFA
:1048D0004E0E6D4146EB060642EAC62141EA5551AD
:1048E0004FEAC52040EA5E504FEACE2EB4F1FD0CEF
:1048F00088BFBCF5E06F1ED8BEF1004F08BF5FEA6D
:10490000500E50F1000041EB045170BD06F000461E
:1049100046EA010140EA020081EA0301B4EB5C04CB
:10492000C2BFD4EB0C0541EA045170BD41F48011C3
:104930004FF0000E013C00F3AB8014F1360FDEBFE8
:10494000002001F0004170BDC4F10004203C35DAC4
:104950000C341BDC04F11404C4F1200500FA05F347
:1049600020FA04F001FA05F240EA020001F00042E8
:1049700021F0004110EBD37021FA04F642EB06015E
:104980005EEA430E08BF20EAD37070BDC4F10C0488
:10499000C4F1200500FA04F320FA05F001FA04F24C
:1049A00040EA020001F0004110EBD37041F1000138
:1049B0005EEA430E08BF20EAD37070BDC4F1200543
:1049C00000FA05F24EEA020E20FA04F301FA05F2AB
:1049D00043EA020321FA04F001F0004121FA04F253
:1049E00020EA020000EBD3705EEA430E08BF20EA23
:1049F000D37070BD94F0000F0FD101F0004640005D
:104A000041EB010111F4801F08BF013CF7D041EADE
:104A1000060195F0000F18BF704703F000465200E2
:104A200043EB030313F4801F08BF013DF7D043EAB3
:104A30000603704794EA0C0F0CEA135518BF95EA69
:104A40000C0F0CD050EA410618BF52EA4306D1D1F0
:104A500081EA030101F000414FF0000070BD50EA0F
:104A6000410606BF1046194652EA430619D094EA99
:104A70000C0F02D150EA013613D195EA0C0F05D183
:104A800052EA03361CBF104619460AD181EA0301D7
:104A900001F0004141F0FE4141F470014FF000008F
:104AA00070BD41F0FE4141F4780170BD70B54FF02A
:104AB000FF0C4CF4E06C1CEA11541DBF1CEA1355AA
:104AC00094EA0C0F95EA0C0F00F0A7F8A4EB05048C
:104AD00081EA030E52EA03354FEA013100F0888083
:104AE0004FEA03334FF0805545EA131343EA12634C
:104AF0004FEA022245EA111545EA10654FEA002601
:104B00000EF000419D4208BF964244F1FD0404F5B9
:104B1000407402D25B084FEA3202B61A65EB030515
:104B20005B084FEA32024FF480104FF4002CB6EBD2
:104B3000020E75EB030E22BFB61A754640EA0C0052
:104B40005B084FEA3202B6EB020E75EB030E22BF92
:104B5000B61A754640EA5C005B084FEA3202B6EBD3
:104B6000020E75EB030E22BFB61A754640EA9C0092
:104B70005B084FEA3202B6EB020E75EB030E22BF62
:104B8000B61A754640EADC0055EA060E18D04FEA20
:104B9000051545EA16754FEA06164FEAC30343EAC0
:104BA00052734FEAC2025FEA1C1CC0D111F4801F8D
:104BB0000BD141EA00014FF000004FF0004CB6E786
:104BC00011F4801F04BF01430020B4F1FD0C88BF25
:104BD000BCF5E06F3FF6AFAEB5EB030C04BFB6EB30
:104BE000020C5FEA500C50F1000041EB045170BD23
:104BF0000EF0004E4EEA113114EB5C04C2BFD4EB50
:104C00000C0541EA045170BD41F480114FF0000ED3
:104C1000013C90E645EA060E8DE60CEA135594EA4F
:104C20000C0F08BF95EA0C0F3FF43BAF94EA0C0F52
:104C30000AD150EA01347FF434AF95EA0C0F7FF4C7
:104C400025AF104619462CE795EA0C0F06D152EA1B
:104C500003353FF4FDAE1046194622E750EA4106FF
:104C600018BF52EA43067FF4C5AE50EA41047FF410
:104C70000DAF52EA43057FF4EBAE12E74FF0FF3C75
:104C800006E000BF4FF0010C02E000BF4FF0010C46
:104C90004DF804CD4FEA410C7FEA6C5C4FEA430CBF
:104CA00018BF7FEA6C5C1BD001B050EA410C0CBF0E
:104CB00052EA430C91EA030F02BF90EA020F002070
:104CC000704710F1000F91EA030F58BF994208BFD7
:104CD00090422CBFD8176FEAE37040F00100704794
:104CE0004FEA410C7FEA6C5C02D150EA013C07D1EB
:104CF0004FEA430C7FEA6C5CD6D152EA033CD3D036
:104D00005DF8040B704700BF8446104662468C462F
:104D10001946634600E000BF01B5FFF7B7FF002862
:104D200048BF10F1000F01BD4DF808EDFFF7F4FF8B
:104D30000CBF012000205DF808FB00BF4DF808ED16
:104D4000FFF7EAFF34BF012000205DF808FB00BF39
:104D50004DF808EDFFF7E0FF94BF012000205DF85B
:104D600008FB00BF4DF808EDFFF7CEFF94BF012010
:104D700000205DF808FB00BF4DF808EDFFF7C4FF09
:104D800034BF012000205DF808FB00BF4FEA410C52
:104D90007FEA6C5C02D150EA013C0AD14FEA430C35
:104DA0007FEA6C5C02D152EA033C02D14FF0000072
:104DB00070474FF0010070474FEA410212F50012B0
:104DC00015D211D56FF47873B3EB625212D94FEA52
:104DD000C12343F0004343EA505311F0004F23FA3C
:104DE00002F018BF404270474FF00000704750EA91
:104DF000013005D111F0004008BF6FF0004070474E
:104E00004FF00000704700BF53B94AB9002908BFEE
:104E100000281CBF4FF0FF314FF0FF3000F00CB8FE
:104E2000ADF1080C6DE904CE4DF0D6FEDDF804E0DE
:104E3000DDE9022304B07047704700BF014B1868DA
:104E4000704700BF0C00002080EA0102844612F087
:104E5000030F4FD111F0030F32D14DF8044D11F073
:104E6000040F51F8043B0BD0A3F101329A4312F026
:104E7000803F04BF4CF8043B51F8043B16D100BFFF
:104E800051F8044BA3F101329A4312F0803FA4F190
:104E900001320BD14CF8043BA24312F0803F04BF17
:104EA00051F8043B4CF8044BEAD023460CF8013B84
:104EB00013F0FF0F4FEA3323F8D15DF8044B70472E
:104EC00011F0010F06D011F8012B0CF8012B002A6C
:104ED00008BF704711F0020FBFD031F8022B12F05B
:104EE000FF0F16BF2CF8022B8CF8002012F47F4F16
:104EF000B3D1704711F8012B0CF8012B002AF9D11E
:104F0000704700BF80B584B000AFF860B9607A60C8
:104F10007B689AB24FF0FF33B96804484DF0A0FAAD
:104F20007B6818461037BD4680BD00BFDC040020FA
:104F300080B500AF4CF09EFD00F022F800F08EF836
:104F400000F096F900F014F900F008FA0A484CF065
:104F500053FE05F099FC00F0CDFC00F027FD07485A
:104F600000F0C5FB054800F0A0FB05204BF080F8E1
:104F700038F0F8FB00BFF8E794040020300400206C
:104F800080B594B000AF07F120033022002118460D
:104F9000FCF71CF807F10C0300221A605A609A60B3
:104FA000DA601A610023BB60274B1B6C264A43F072
:104FB00080531364244B1B6C03F08053BB60BB68AD
:104FC00000237B60214B1B68204A43F4404313605D
:104FD0001E4B1B6803F440437B607B6802233B62EB
:104FE0000123FB6210233B630223BB630023FB63AB
:104FF00008233B6464237B640223BB640423FB64B7
:1050000007F1200318464BF015FE0346002B01D094
:1050100000F01EF80F23FB6002233B6100237B613D
:105020004FF48053BB610023FB6107F10C030321A4
:1050300018464CF077F80346002B01D000F008F832
:1050400000BF5037BD4680BD0038024000700040B0
:1050500080B400AF72B600BF00BFFDE780B58AB074
:1050600000AF07F1140300221A605A609A60DA60F8
:105070001A6100233B613A4B1B6B394A43F004032E
:105080001363374B1B6B03F004033B613B69002345
:10509000FB60334B1B6B324A43F080031363304B8E
:1050A0001B6B03F08003FB60FB680023BB602C4B91
:1050B0001B6B2B4A43F001031363294B1B6B03F05B
:1050C0000103BB60BB6800237B60254B1B6B244A3C
:1050D00043F002031363224B1B6B03F002037B605C
:1050E0007B6800224FF400511E484CF097FB0022D1
:1050F00058211D484CF092FB002202211B484CF025
:105100008DFB4FF400537B610123BB610023FB61E6
:1051100000233B6207F11403194612484CF0E2F9F0
:1051200058237B610123BB610023FB6100233B62A9
:1051300007F1140319460C484CF0D4F902237B61A3
:105140000123BB610023FB6100233B6207F11403D1
:10515000194606484CF0C6F900BF2837BD4680BD49
:1051600000380240000802400000024000040240F3
:1051700080B500AF184B194A1A60174B4FF4827272
:105180005A60154B4FF400429A60134B0022DA60CC
:10519000114B00221A61104B00225A610E4B4FF442
:1051A00000729A610C4B0022DA610B4B00221A62EA
:1051B000094B00225A62084B00229A62064B0A22CF
:1051C000DA6205484BF08CFA0346002B01D0FFF75A
:1051D0003FFF00BF80BD00BF3C0400200030014005
:1051E00080B58AB000AF786007F1140300221A601E
:1051F0005A609A60DA601A617B681B68194A9342A8
:105200002BD100233B61184B5B6C174A43F480534E
:105210005364154B5B6C03F480533B613B69002383
:10522000FB60114B1B6B104A43F0010313630E4BE1
:105230001B6B03F00103FB60FB68A0237B6102236F
:10524000BB610023FB6103233B6205237B6207F103
:105250001403194605484CF045F900BF2837BD46F0
:1052600080BD00BF00300140003802400000024015
:1052700080B586B000AF07F1080300221A605A60BB
:105280009A60DA603B4600221A605A601D4B1E4A43
:105290001A601C4B42F20F725A601A4B00229A603D
:1052A000184B0922DA60174B00221A61154B802235
:1052B0009A6114484CF050FC0346002B01D0FFF7D4
:1052C000C7FE4FF48053BB6007F1080319460D4831
:1052D0004CF0E4FD0346002B01D0FFF7B9FE00239C
:1052E0003B6000237B603B46194606484CF0E6FFD6
:1052F0000346002B01D0FFF7ABFE00BF1837BD46B9
:1053000080BD00BF940400200008004080B584B038
:1053100000AF78607B681B680E4A934215D100236A
:10532000FB600D4B1B6C0C4A43F0040313640A4BE7
:105330001B6C03F00403FB60FB68002200211E20AD
:105340004CF061FB1E204CF07AFB00BF1037BD46CD
:1053500080BD00BF000800400038024080B500AFAB
:10536000114B124A1A60104B4FF4E1325A600E4B47
:1053700000229A600C4B0022DA600B4B00221A616B
:10538000094B0C225A61084B00229A61064B0022FD
:10539000DA6105484DF014F80346002B01D0FFF701
:1053A00057FE00BF80BD00BFDC040020001001409C
:1053B00080B58AB000AF786007F1140300221A604C
:1053C0005A609A60DA601A617B681B68194A9342D6
:1053D0002CD100233B61184B5B6C174A43F0100340
:1053E0005364154B5B6C03F010033B613B69002376
:1053F000FB60114B1B6B104A43F0010313630E4B10
:105400001B6B03F00103FB60FB684FF4C0637B611F
:105410000223BB610023FB6103233B6207237B6202
:1054200007F11403194605484CF05CF800BF283713
:10543000BD4680BD0010014000380240000002401F
:1054400080B400AF00BFFDE780B400AF00BFFDE750
:1054500080B400AF00BFFDE780B400AF00BFFDE740
:1054600080B400AF00BFFDE780B400AF00BFBD4611
:105470005DF8047B704780B400AF00BFBD465DF8A7
:10548000047B704780B400AF00BFBD465DF8047B6D
:10549000704780B500AF4CF03FFB00BF80BD0000FF
:1054A00080B500AF02484CF009FC00BF80BD00BFD2
:1054B0009404002080B483B000AF00237B60104BC5
:1054C0005B6C0F4A43F4804353640D4B5B6C03F4F5
:1054D00080437B607B6800233B60094B1B6C084A60
:1054E00043F080531364064B1B6C03F080533B6006
:1054F0003B6800BF0C37BD465DF8047B704700BFBA
:105500000038024080B586B000AF7860144A154B71
:10551000D31A7B617B693B61134B1B68002B02D163
:10552000114B124A1A60104B1A687B6813443A698F
:105530009A4207D2FFF782FC03460C221A604FF012
:10554000FF3309E0084B1B68FB60074B1A687B6858
:105550001344054A1360FB6818461837BD4680BDE2
:10556000000002200010000024050020A0FA002006
:1055700080B400AF01231846BD465DF8047B704738
:1055800080B582B000AF78603960FFF757FC034602
:1055900016221A604FF0FF3318460837BD4680BD0B
:1055A00080B582B000AF78604FF0FF317868FFF7C8
:1055B000E7FF00BFFDE780B586B000AFF860B960D7
:1055C0007A6000237B610AE0AFF300800146BB688C
:1055D0005A1CBA60CAB21A707B6901337B617A695E
:1055E0007B689A42F0DB7B6818461837BD4680BD61
:1055F00080B483B000AF78604FF0FF3318460C37AB
:10560000BD465DF8047B704780B483B000AF78601E
:1056100039603B684FF400525A60002318460C373B
:10562000BD465DF8047B704780B483B000AF7860FE
:10563000012318460C37BD465DF8047B704780B4E3
:1056400085B000AFF860B9607A600023184614375F
:10565000BD465DF8047B7047DFF834D04BF02EF880
:105660000C480D490D4A002302E0D458C4500433BD
:10567000C4188C42F9D30A4A0A4C002301E0136093
:105680000432A242FBD3FBF751FDFFF751FC7047F8
:105690000000022000000020C8020020507A050807
:1056A000C8020020A0FA0020FEE780B483B000AF5B
:1056B000786000BF0C37BD465DF8047B704780B54D
:1056C00082B000AF7860786800F085FA00BF0837D4
:1056D000BD4680BD80B483B000AF78607B68012296
:1056E0001A7100BF0C37BD465DF8047B704780B56A
:1056F00082B000AF78607868FFF7ECFF786800F060
:105700000CF8786800F038F87B681B681846FFF7DB
:10571000D6FF00BF0837BD4680BD80B483B000AF60
:10572000786000BF0C37BD465DF8047B704780B4DD
:1057300085B000AF78607B681B0A9BB223F4FF63DF
:1057400023F007039AB27B685B099BB203F4FC6306
:105750009BB213439AB27B68DB089BB203F01F0332
:105760009BB213439BB2BB81BB8918461437BD461D
:105770005DF8047B7047000090B583B000AF78609F
:10578000002005F0D3F802467B681A607B681B682E
:105790004FF48C72F021184608F03AFA7B681B68C7
:1057A000002118460AF023FC7B681B680022CA21EE
:1057B00018460EF0F6FA7B681C684B48FFF7B7FFF7
:1057C00003460022194620460EF0D7FA7B681B6874
:1057D0000022002118460EF0F7FA7B681B68184675
:1057E0003BF026FC02467B689A607B689B6800223F
:1057F0004FF47A7118460EF05AFB7B689B680121C2
:1058000018463BF0E7FC7B689B6864220021184641
:105810003BF099FC7B689B680122642118463BF0B1
:105820001BFC7B689B6893224721184607F051FFB9
:105830007B689B6814225A21184608F0E9F97B68B6
:105840009B6800223C2118460EF0ABFA7B689C68EE
:105850002648FFF76CFF03460022194620460EF04B
:105860008CFA7B689B680022002118460EF0ACFA87
:105870007B689B6800220A2118460EF0F1FA7B68CB
:105880009B680022002118460EF0C3FA7B689B68D3
:105890004FF40032FF2118460EF083FA7B689C68B3
:1058A0001348FFF744FF03464FF4003219462046E1
:1058B0000EF063FA7B689B684FF4003200211846B3
:1058C0000EF082FA7B689B684FF400320A2118467A
:1058D0000EF0C6FA7B681B68184608F05FFA00BF36
:1058E0000C37BD4690BD00BF6AF6C900E5D7C500BC
:1058F0006A87F60080B500AF00F026F84FF42F63FA
:105900000C4A0D490D4832F0A7FC0D4832F062FCFC
:105910000B4B4FF48C721A80094BF0225A80084BC3
:10592000084A5A61064B054ADA60054832F0B0FC75
:1059300000BF80BD241B0020440500202805002056
:10594000043100205559000880B500AF4AF0C2FC70
:1059500000BF80BD90B589B002AFF860B9607A60D1
:10596000114B1B78DBB2002B17D07B681B88FB82A6
:10597000BB68B3F9003098B2BB68B3F9023099B292
:10598000BB68B3F904309AB2BB68B3F906309CB275
:10599000FB8A009323464AF08DFDF86832F0E0FD63
:1059A00000BF1C37BD4690BDC801002080B500AFC8
:1059B00000F018F8084832F00AFE074B01221A706E
:1059C000054B064A5A60044832F024FE0346044A56
:1059D000136000BF80BD00BF58310020F15900089E
:1059E0005431002080B500AF4AF0FCFD00BF80BDFF
:1059F00080B582B000AF7860396000F021F80346CE
:105A0000002B07D00C490D4800F02EF83B6801220E
:105A10009A7302E03B6800229A73084BB3F90020A6
:105A20003B681A80044BB3F900203B685A8000BFE2
:105A30000837BD4680BD00BF7A3100207831002094
:105A400080B582B000AF4AF023FE0346FB71FB79BC
:105A5000002B04D0FB79FF2B01D0012300E00023B1
:105A600018460837BD4680BD80B582B000AF78606B
:105A700039604AF0E7FD074B5B681AB27B681A8011
:105A8000044B9B681AB23B681A8000BF0837BD46BA
:105A900080BD00BF90FA002080B483B000AF786072
:105AA00039607B683A681A6000BF0C37BD465DF804
:105AB000047B704780B483B000AF786039607B6846
:105AC0003A685A6000BF0C37BD465DF8047B7047EA
:105AD00080B483B000AF786039603A687B68DA627E
:105AE00000BF0C37BD465DF8047B704780B483B0BF
:105AF00000AF786039603B685A427B681A6300BF28
